:020000040800F2
:10000000500F00208901000839100008EB09000892
:100010003510000801070008872A000800000000CA
:10002000000000000000000000000000151700089C
:10003000B50700080000000077150008291800081F
:10004000A3010008A3010008A3010008A301000800
:10005000A3010008A3010008A3010008A3010008F0
:10006000A3010008A3010008A3010008A3010008E0
:10007000A3010008A3010008A3010008A3010008D0
:10008000A3010008A3010008A3010008A3010008C0
:10009000A3010008A3010008A3010008A3010008B0
:1000A000A3010008CD1A0008A3010008A30100085D
:1000B000A3010008A3010008A3010008A301000890
:1000C000A3010008A3010008A3010008A301000880
:1000D000A3010008C5240008A30100089526000814
:1000E000A3010008A3010008A301000800F002F822
:1000F00000F03AF80AA090E8000C82448344AAF188
:100100000107DA4501D100F02FF8AFF2090EBAE885
:100110000F0013F0010F18BFFB1A43F0010318473B
:1001200080900000A0900000103A24BF78C878C1E9
:10013000FAD8520724BF30C830C144BF04680C60ED
:10014000704700000023002400250026103A28BF35
:1001500078C1FBD8520728BF30C148BF0B60704739
:100160001FB51FBD10B510BD00F060F91146FFF7B7
:10017000F7FF04F06DFA00F07EF903B4FFF7F2FF29
:1001800003BC02F0FFFC0000094880470948004713
:10019000FEE7FEE7FEE7FEE7FEE7FEE7FEE7FEE737
:1001A000FEE7FEE704480549054A064B7047000094
:1001B0002D180008ED00000850090020500F002005
:1001C000500B0020500B0020704710B54C1084EAF3
:1001D000530404D54042C1F1000138BF491E1B42FF
:1001E00004D55242C3F1000338BF5B1E00F049F84A
:1001F00014F0804F04D04042C1F1000138BF491EC5
:1002000014F0004F04D05242C3F1000338BF5B1E0C
:1002100010BD40EA010310B59B070FD1042A0DD38E
:1002200010C808C9121F9C42F8D020BA19BA8842D7
:1002300001D9012010BD4FF0FF3010BD1AB1D30716
:1002400003D0521C07E0002010BD10F8013B11F84C
:10025000014B1B1B07D110F8013B11F8014B1B1B75
:1002600001D1921EF1D1184610BD02F0FF0343EAFE
:10027000032242EA024200F088B870477047704794
:10028000704753EA020C00F069802DE9F04B4FF003
:100290000006002B1FBFB3FA83F503FA05F424FA16
:1002A00005F65E4012BF1643B2FA82F502FA05F473
:1002B000C5F120051EBF22FA05FC44EA0C042035D6
:1002C00056EA044C4FEA144418BF641C4FF000086F
:1002D0004FF00009904271EB030C39D3002919BF8C
:1002E000B1FA81F701FA07F6B0FA80F700FA07F6DB
:1002F000C7F120071EBF20FA07FC46EA0C0620378C
:10030000B6FBF4FCA7EB0507103F07F01F0BCBF182
:1003100020060CFA0BFB2CFA06F644BFB346002667
:10032000202FA4BF5E464FF0000B5BEA060C08BF0F
:100330004FF0010B19EB0B09ABFB027C48EB0608F5
:10034000C01B06FB02CC0BFB03CC71EB0C01C1E71D
:100350000B46024641464846BDE8F08B13B54FF0C8
:1003600000004FF00001AFF30080BDE81C40704773
:1003700010B500F02BF8006810BD10B5044600F071
:1003800025F8046010BD4FF000020429C0F012806F
:1003900010F0030C00F02080CCF1040CBCF1020F33
:1003A00018BF00F8012BA8BF20F8022BA1EB0C010D
:1003B00000F012B85FEAC17C24BF00F8012B00F8FE
:1003C000012B48BF00F8012B704700000048704720
:1003D000EC0800204FF0000200B513469446964604
:1003E000203922BFA0E80C50A0E80C50B1F1200148
:1003F000BFF4F7AF090728BFA0E80C5048BF0CC0F6
:100400005DF804EB890028BF40F8042B08BF704753
:1004100048BF20F8022B11F0804F18BF00F8012BC5
:100420007047000000487047EC0800207546FFF751
:10043000F9FFAE4605006946534620F007008546A1
:1004400018B020B5FFF7AEFEBDE820404FF0000623
:100450004FF000074FF000084FF0000B21F00701AC
:10046000AC46ACE8C009ACE8C009ACE8C009ACE8EF
:10047000C0098D46704710B50446AFF30080204692
:10048000BDE81040FFF779BE21B1826842F0010259
:10049000826003E0826822F00102826070470000FF
:1004A00010B504461248844208D10121401501F0DC
:1004B0009FF80021601501F09BF817E00D48844279
:1004C00008D10121001501F093F80021201501F059
:1004D0008FF80BE00848844208D10121C80301F0DD
:1004E00087F800214FF4004001F082F810BD0000B1
:1004F0000024014000280140003C0140014600204A
:100500008A6802F004020AB1012000E0002070476E
:100510000146C86C80B270470246002013680B4049
:100520000BB1012000E000207047014600208A68DE
:1005300002F008020AB1012000E00020704700002C
:1005400030B502460020002350680F4C20400D7942
:100550000C6844EA05242043506090680B4C20400E
:10056000D1E902542C434D7944EA4504204390607C
:10057000D06A20F470000C7C641EE4B2234340EA8D
:100580000350D06230BD0000FFFEF0FFFDF7F1FF29
:10059000F0B504460D4600200021092D11DDE0686C
:1005A000A5F10A0606EB4607072606FA07F1884377
:1005B000A5F10A0606EB460603FA06F10843E060D9
:1005C0000CE0206905EB4507072606FA07F188438A
:1005D00005EB450603FA06F108432061072A0FDA06
:1005E000606B561E06EB86071F2606FA07F1884346
:1005F000561E06EB860605FA06F10843606322E004
:100600000D2A0FDA206BD61F06EB86071F2606FA87
:1006100007F18843D61F06EB860605FA06F1084364
:10062000206310E0E06AA2F10D0606EB86071F26A4
:1006300006FA07F18843A2F10D0606EB860605FAD5
:1006400006F10843E062F0BD816841F00801816075
:10065000704721B1826842F4A002826003E08268A0
:1006600022F4A00282607047816841F00401816039
:100670007047000000B587B001214FF4017000F011
:10068000A7FF4FF4004000F077FF3020ADF80400E2
:1006900000208DF8070001A9174800F08CF81748D2
:1006A000FFF7FEFE002002908DF80C008DF80D0083
:1006B0004FF4602004900020059001208DF8180070
:1006C00002A90E48FFF73CFF01210C48FFF7DCFEB2
:1006D0000A48FFF7B9FF00BF0848FFF726FF0028C8
:1006E000FAD10648FFF7C0FF00BF0448FFF706FF36
:1006F0000028FAD107B000BD0008014000240140E5
:1007000000BFFEE710B500214FF0804001F013FE5E
:1007100000214FF0804001F010FE00214FF080409A
:1007200001F00DFE00214FF0804001F00AFE10BDE7
:100730002DE9F0411948B0F900101948006802F09D
:1007400081FD04B21748B0F900101748B0F9000055
:1007500005F028F805B21149B1F9040006F04CF88B
:1007600007463A460F48B0F900100F48B0F90000AC
:1007700005F0EAF806B2601930440C4908606019C7
:10078000801B0B4908600846008801B207480088B2
:1007900000B200F0A1FEBDE8F0810000580000208A
:1007A0004C000020DA000020D8000020A00000202B
:1007B000A400002070472DE9F041024600250026E4
:1007C000002000230024002791F803C00CF00F053F
:1007D00091F803C00CF0100CBCF1000F03D091F89D
:1007E00002C04CEA050591F800C0BCF1000F31D001
:1007F000146800202BE04FF0010C0CFA00F3B1F864
:1008000000C00CEA03069E4220D183004FF00F0C7B
:100810000CFA03F7BC4305FA03FC4CEA040491F814
:1008200003C0BCF1280F06D14FF0010C0CFA00FCFC
:10083000C2F814C00AE091F803C0BCF1480F05D11A
:100840004FF0010C0CFA00FCC2F810C0401C082844
:10085000D1D31460B1F800C0BCF1FF0F34DD54688F
:1008600000202EE000F1080C4FF0010808FA0CF30C
:10087000B1F800C00CEA03069E4221D183004FF07C
:100880000F0C0CFA03F7BC4305FA03FC4CEA040412
:1008900091F803C0BCF1280F05D100F1080C08FA4B
:1008A0000CF8C2F8148091F803C0BCF1480F07D1CE
:1008B00000F1080C4FF0010808FA0CF8C2F810809B
:1008C000401C0828CED35460BDE8F081F0B50A463C
:1008D000002300240021002500F00046B6F1004F5F
:1008E00002D11D4EF16901E01B4E7168C0F3034552
:1008F00083B200F44016B6F5401F08D121F07061B4
:10090000154E766826F07066134F7E6012E000F494
:100910008016B6F5801F06D1032606FA05F4A1431A
:1009200041F0706106E0460D360103FA06F6B14368
:1009300041F0706122B1460D360103FA06F63143EB
:1009400000F00046B6F1004F02D1034EF16101E024
:10095000014E7160F0BD0000000001400246002021
:1009600093680B400BB1012000E00020704741610B
:100970007047016170474FF6FF710180022181705D
:100980000421C1707047000010B5044607230122FE
:1009900021460948FFF7FCFD01210748FFF759FEF2
:1009A00000BF02210448FFF7B7FD0028F9D0024834
:1009B000FFF7AEFD10BD0000002401402DE9F0411D
:1009C00007460C460025002608E03846FFF7DCFF06
:1009D0000544052002F0B4FC701CC6B2A642F4DB4C
:1009E000B5FBF4F080B2BDE8F08100BFFEE7000087
:1009F00010B501210B48FFF7BAFF00F0CDF8022136
:100A00000848FFF7B4FF022002F0C0FC01210548AE
:100A1000FFF7AFFF022002F0B9FC01210148FFF708
:100A2000A6FF10BD000C014008B50121082000F010
:100A3000CFFD0320ADF800008DF8020010208DF8E6
:100A4000030069460548FFF7B6FE01210348FFF79A
:100A500090FF02210148FFF78CFF08BD000C014008
:100A600010B501210B48FFF782FF00F095F8022135
:100A70000848FFF77EFF022002F088FC01210548AC
:100A8000FFF777FF022002F081FC01210148FFF708
:100A90006EFF10BD000C01402DE9F04104460D46EB
:100AA00016461F463B4632462946204600F007F8C8
:100AB00010B10020BDE8F0814FF0FF30FAE72DE9DA
:100AC000F04105460F4614461E4600F0A7F80021E7
:100AD00041EA4501C8B200F071F800F0D7F820B142
:100AE00000F0B8F80020BDE8F081384600F066F864
:100AF00000F0CCF800F092F8012101EB4501C8B2FA
:100B000000F05CF800F0C2F80CE000F011F8307072
:100B1000012C02D1FFF7A4FF01E0FFF769FF761C6B
:100B2000601EC4B2002CF0D100F094F80120DAE786
:100B300070B50025002400F021F800BF18E0012165
:100B40000D48FFF714FF022002F020FC01210A48A3
:100B5000FFF70FFF6006040E02210748FFF7FEFEB5
:100B600008B1601CC4B2012002F010FC681CC5B2C0
:100B7000082DE4DB204670BD000C014008B50220C2
:100B8000ADF8000048208DF8030069460148FFF7E2
:100B900012FE08BD000C014008B50220ADF80000AF
:100BA00003208DF8020010208DF8030069460248EA
:100BB000FFF701FE08BD0000000C014070B50446BF
:100BC0000025FFF7E9FF01211348FFF7D0FE00BF22
:100BD0001EE004F08000002804DD02210E48FFF72B
:100BE000C8FE03E002210C48FFF7C1FE6006040EB8
:100BF00001210948FFF7BDFE022002F0C7FB0121D9
:100C00000548FFF7B4FE022002F0C0FB681CC5B225
:100C1000082DDEDB70BD0000000C014010B5FFF7B1
:100C2000BBFF02210A48FFF7A4FE01210848FFF795
:100C3000A0FE042002F0AAFB02210548FFF797FE60
:100C4000042002F0A3FB01210148FFF790FE10BD34
:100C5000000C014010B5FFF79FFF01210A48FFF784
:100C600086FE02210848FFF782FE042002F08EFB78
:100C700001210548FFF77DFE02210348FFF779FEB9
:100C8000042002F083FB10BD000C014010B50024CD
:100C9000FFF774FF02211148FFF76BFE012002F0FD
:100CA00075FB01210D48FFF764FE012002F06EFB89
:100CB00007E0601CC4B2FA2C03DDFFF7CBFF012074
:100CC00010BD02210548FFF749FE0028F1D101219E
:100CD0000248FFF74CFE0020F2E70000000C014044
:100CE0002DE9F04104460D4616461F463B46324666
:100CF0002946204600F007F810B10020BDE8F08139
:100D00004FF0FF30FAE72DE9F04106460F469046D6
:100D10001C46FFF783FF002141EA4601C8B2FFF7F6
:100D20004DFFFFF7B3FF20B1FFF794FF0020BDE8B0
:100D3000F0813846FFF742FFFFF7A8FF00250BE0E0
:100D40002078FFF73BFFFFF7A1FF18B1FFF782FF05
:100D50000020ECE7641C6D1C4545F1DBFFF77AFFD2
:100D60000120E4E770B50024FFF75EFE03F002FE09
:100D700004461CBB782004F0DDFBE0B9782003F0CA
:100D8000E7FCC0B9642004F087FBA0B902F09AFC2C
:100D900088B90B4803F020FC054602F0F5FE50B977
:100DA00040F2731002F036FB28B9642002F01CFEFA
:100DB00008B904F067FC012004F06AFA70BD000075
:100DC0002C0000202DE9F04F89B08C488C498D4BC8
:100DD0008D4ACDE900108D498D4802F07FFC88488E
:100DE000008800F4807000287DD08749086805F0ED
:100DF00003FD04464FF09D4105F0CCFB854908609A
:100E00008149486805F0F8FC04464FF09D4105F023
:100E1000C1FB814908607C49886805F0EDFC044607
:100E20004FF09D4105F0B6FB7C4908607649C868E3
:100E300005F0E2FC04464FF09D4105F0ABFB78491C
:100E40000860744801684FF0804005F035FD069059
:100E500072480168069805F02FFD82466E480168C9
:100E60004FF0404005F028FD06906D480168069857
:100E700005F022FD8346514605F01EFB079005F064
:100E8000EFFA064601F0D6FE80464FF06632654B1B
:100E900005F00CF8044604F0BBFD634908605F48A8
:100EA00001684FF0804005F007FD03905B48016842
:100EB000039805F001FD8246574801684FF0404015
:100EC00005F0FAFC039054480168039805F0F4FC1F
:100ED0008346514605F0F8FD81464FF07E5105F0FE
:100EE000EBFA044600E086E005F0BAFACDE9040129
:100EF000484801684FF0804005F0DEFC83464648D4
:100F00000168584605F0D8FC8146444801684FF016
:100F1000804005F0D1FC834641480168584605F001
:100F2000CBFC8246494605F0C7FA044605F098FA1C
:100F30000746DDE9042302F0C5F84FF06632394B6D
:100F4000CDE9060104F0B2FF054604F061FD374922
:100F5000086033480168006805F0AEFC03902F4834
:100F60000168006805F0A8FC02902B480168006841
:100F700005F0A2FC834627480168006805F09CFC48
:100F80005946019005F098FA8246029905F09CFDB9
:100F90008146039905F098FD044605F061FACDE914
:100FA00004011F4801681B48006805F085FC824663
:100FB0001A4801681848006805F07EFC83465146CF
:100FC00005F07AFA81464FF0804105F075FC044641
:100FD00005F046FA0746DDE9042302F073F84FF006
:100FE0006632104BCDE9060104F060FF054604F0BF
:100FF0000FFD0F49086009B0BDE8F08F66000020C2
:101000006400002054000020E40000205E00002066
:1010100058000020380000203C0000204000002044
:101020004400002066A64C40480000204C000020F0
:101030005000002000BFFEE77047000070B500219F
:1010400000230F22C47804B3154C246804F4E06430
:10105000C4F5E064210AC1F10403CA40447804FAEB
:1010600003F184781440214309010E4C0678A15500
:10107000047804F01F050124AC4005786D11AD0023
:1010800005F1E025C5F8004109E0047804F01F05EA
:101090000124AC40044D0678761145F8264070BD19
:1010A0000CED00E000E400E080E100E002490143D3
:1010B000024A1160704700000000FA050CED00E0E4
:1010C00030B500240CE0002506E00020074901EBC4
:1010D000C5010855681CC5B2802DF6DB601CC4B282
:1010E000082CF0DB00F0ECF830BD0000EC04002030
:1010F000F0B5144600267F2801DC3F2900DDF0BD55
:101100000B46CF1701EB5777FF10C7F10707FAB26D
:10111000CF1701EB5777FF10A1EBC707FDB2C5F161
:1011200007070123BB40DEB24CB10A4B03EBC003FF
:101130009B5C3343074F07EBC007BB5408E0054BEC
:1011400003EBC0039B5CB343024F07EBC007BB54E8
:1011500000BFD4E7EC04002008B501214FF48E70E5
:1011600000F036FA4FF44050ADF8000010208DF832
:10117000030003208DF8020069464D48FFF71BFB72
:101180004FF440514A48FFF7F4FB4FF48070ADF83C
:10119000000069464748FFF70EFB4FF48071454851
:1011A000FFF7E7FB4FF44040ADF8000069464048C8
:1011B000FFF701FB4FF440413D48FFF7DAFB012008
:1011C0003D4908603D49C1F8B40100203A49083161
:1011D0000860642002F0B4F801203849C1F8B80171
:1011E0000021AE2000F048F90021D52000F044F99C
:1011F0000021502000F040F90021A82000F03CF927
:1012000000213F2000F038F90021D32000F034F90C
:101210000021084600F030F90021402000F02CF9B0
:1012200000218D2000F028F90021142000F024F97D
:101230000021202000F020F90021022000F01CF9FC
:101240000021A12000F018F90021C02000F014F9BD
:101250000021DA2000F010F90021122000F00CF932
:101260000021812000F008F90021EF2000F004F9AE
:101270000021D92000F000F90021F12000F0FCF855
:101280000021DB2000F0F8F80021302000F0F4F815
:101290000021A42000F0F0F80021A62000F0ECF8D6
:1012A0000021AF2000F0E8F8FFF70AFF08BD0000BA
:1012B000000C014000080140B08121420080214221
:1012C00030B500241CE004F1B001C8B2002100F0E8
:1012D000D3F80021084600F0CFF80021102000F0DC
:1012E000CBF8002508E0084901EBC501085D0121A4
:1012F00000F0C2F8681CC5B2802DF4DB601CC4B2DB
:10130000082CE0DB30BD0000EC0400202DE9F84F94
:1013100080460F4616461C46BA462046E31704EBA5
:101320005373DB1021464FEAE47C04EB5C7C4FEA0C
:10133000EC0CA4EBCC0CBCF1000F02D04FF0010C74
:1013400001E04FF0000C6344224604EBD27C4FEAEC
:101350006C0C03FB0CF303F0FF0BA6F12000C6B2EC
:1013600000254EE00C2C07D106EB4600274901EB87
:101370008000405D009013E0102C05D1244800EB64
:101380000610405D00900BE0182C07D106EBC6005C
:10139000204901EB8000405D009001E0BDE8F88F3E
:1013A0004FF0000927E0009800F0800028B139468E
:1013B00040460A9AFFF79CFE09E00A9808B9012006
:1013C00000E00020024639464046FFF791FE0098B3
:1013D0004006000E0090781CC7B2A7EB0A00A0429E
:1013E00005D1574608F1010000F0FF0806E009F1B9
:1013F000010000F0FF09B9F1080FD4DB00BF681C41
:10140000C5B25D45AEDB00BFC8E70000EA78000862
:101410005E7D00084E830008F8B506460F46154667
:101420001C4621E004EBD4714910C1F18001B142A6
:1014300002DA00263819C7B2C4F14000B84204DA13
:10144000002006460746FFF73BFE012000902A7861
:10145000234639463046FFF759FF204604EBD0714A
:1014600006EB6101CEB26D1C28787E2802DC28785C
:101470002028D7DAF8BD000010B5144B19600023FE
:10148000134CC4F8B031002215E00023114C236046
:1014900000F0800323B101230C4C0834236003E0E7
:1014A00000230A4C0834236001230A4C23604306BE
:1014B000180E531CDAB2082AE7DB0123034C241F61
:1014C0002360034CC4F8B43110BD0000B481214244
:1014D00000802142A001214270B504460D467826C5
:1014E000002C12DA604204B2B4F57A6F01DD4FF4D9
:1014F0007A6400214FF0804000F01DFFA01981B2F6
:101500004FF0804000F019FF0FE0B4F57A6F01DD75
:101510004FF47A64A01981B24FF0804000F00BFFC5
:1015200000214FF0804000F008FF002D12DA6842E1
:1015300005B2B5F57A6F01DD4FF47A65A81981B26D
:101540004FF0804000F0FBFE00214FF0804000F0A3
:10155000F8FE0FE0B5F57A6F01DD4FF47A650021F2
:101560004FF0804000F0EBFEA81981B24FF08040B0
:1015700000F0E7FE70BD704701460020034A506846
:1015800020F44040084350607047000000100240C3
:1015900029B1064AD2690243044BDA6104E0034AE6
:1015A000D2698243014BDA617047000000100240AB
:1015B00029B1064A12690243044B1A6104E0034A46
:1015C00012698243014B1A6170470000001002400B
:1015D00029B1064A92690243044B9A6104E0034A26
:1015E00092698243014B9A617047000000100240EB
:1015F00029B1064AD2680243044BDA6004E0034A88
:10160000D2688243014BDA6070470000001002404C
:1016100030B500210022002400232D4D6D6805F017
:101620000C0121B1042905D0082923D105E0294D59
:10163000056022E0274D05601FE0254D6D6805F42B
:101640007012234D6D6805F48034022505EB92423B
:101650001CB9214D554305600BE01D4D6D6805F427
:1016600000351DB11C4D5543056002E0194D554331
:10167000056002E0174D056000BF00BF144D6D68A6
:1016800005F0F0010909154D6B5C0568DD4045600A
:101690000F4D6D6805F4E061090A104D6B5C4568FB
:1016A000DD4085600A4D6D6805F46051C90A0B4D37
:1016B0006B5C4568DD40C560054D6D6805F44041D3
:1016C000890B074D6B5CC568B5FBF3F5056130BD53
:1016D0000010024000127A0000093D0014000020B2
:1016E000240000200748008800B207490880074806
:1016F000008800B20649088000200249088003499A
:101700000880704724040040D800002024080040CE
:10171000DA000020704710B500F002F810BD00009C
:101720000CB50020019000903348006840F48030F0
:101730003149086000BF3048006800F40030009074
:101740000198401C0190009818B90198B0F5A06F5D
:10175000F1D12948006800F4003010B10120009058
:1017600001E0002000900098012843D12348006840
:1017700040F01000214908600846006820F003008E
:1017800008600846006840F0020008601A48406897
:10179000194948600846406848600846406840F477
:1017A000806048600846406820F47C104860084625
:1017B000406840F4E81048600846006840F08070D7
:1017C000086000BF0C48006800F000700028F9D0E5
:1017D0000948406820F0030007494860084640680F
:1017E00040F00200486000BF0348406800F00C0071
:1017F0000828F9D10CBD0000001002400020024072
:10180000042808D14FF0E021096941F004014FF0AC
:10181000E022116107E04FF0E021096921F00401A5
:101820004FF0E022116170477047000010B5134877
:10183000006840F0010011490860084640681049FE
:1018400008400E494860084600680E4908400B49A8
:1018500008600846006820F4802008600846406858
:1018600020F4FE0048604FF41F008860FFF753FF2C
:101870004FF000600449086010BD000000100240F5
:101880000000FFF8FFFFF6FE08ED00E0F0B50C46A3
:10189000154600220021068C4FF6FE773E40068456
:1018A000028B018C4FF60C7632407E1C06EA031642
:1018B0002E433243104EB0420ED0104EB0420BD0E9
:1018C000B0F1804F08D00E4EB04205D00D4EB04260
:1018D00002D00D4EB04206D14FF6FD76314044F0B5
:1018E0000106314305E04FF6F576314044F001063C
:1018F000314302830184F0BD002C014000340140DB
:101900000004004000080040000C0040F0B50C4608
:101910001546002200210026078C4FF6EF7C07EACF
:101920000C070784028B018C4FF6FF7707EA041639
:1019300040F6FF473A404FF6FF7707EA03373A434E
:101940004FF6FF7707EA05273A43114FB8420ED00A
:10195000104FB8420BD0B0F1804F08D00E4FB842B4
:1019600005D00E4FB84202D00D4FB84206D14FF607
:10197000DF77394046F01007394305E04FF65F77CF
:10198000394044F01007394302830184F0BD000060
:10199000002C0140003401400004004000080040D9
:1019A000000C0040F0B50C46154600220021002630
:1019B000078C4FF6FF6C07EA0C070784828B018CBB
:1019C0004FF6FF7707EA04264FF60C773A404FF6BA
:1019D000FF7707EA03172F433A43114FB8420ED05F
:1019E000104FB8420BD0B0F1804F08D00E4FB84224
:1019F00005D00E4FB84202D00D4FB84206D14FF677
:101A0000FF57394046F48077394305E04FF2FF57DE
:101A1000394044F48077394382830184F0BD00006B
:101A2000002C014000340140000400400008004048
:101A3000000C0040F0B50C4615460022002100269F
:101A4000078C4EF6FF7C07EA0C070784828B018C1B
:101A50004FF6FF7707EA043640F6FF473A404FF665
:101A6000FF7707EA05273A434FF6FF7707EA033780
:101A70003A43114FB8420ED0104FB8420BD0B0F1DC
:101A8000804F08D00E4FB84205D00E4FB84202D05A
:101A90000D4FB84206D14DF6FF77394046F48057D6
:101AA000394305E047F6FF57394044F4805739433E
:101AB00082830184F0BD0000002C0140003401400D
:101AC0000004004000080040000C004010B5012157
:101AD0000B4800F05CFA90B1FFF774F90948007800
:101AE000401C0849087008460078282803D10020C7
:101AF0000870FFF7F7FD0121014800F024F910BD3F
:101B0000002C01406700002030B589B005460C4626
:101B100001210846FFF73CFD01210420FFF758FD95
:101B20000F20ADF8200018208DF8230003208DF839
:101B3000220008A92B48FEF73EFEADF81850ADF87C
:101B400014400020ADF81A00ADF8160005A94FF0BA
:101B5000804000F025FC6020ADF804000120ADF8C5
:101B600006000020ADF80C0001A94FF0804000F005
:101B700087FA01A94FF0804000F0D8FA01A94FF090
:101B8000804000F033FB01A94FF0804000F088FB5B
:101B90000821C80600F0C0FA0821C80600F018FBAA
:101BA0000821C80600F072FB0821C80600F0B6FB49
:101BB0000121880700F0CAF800214FF0804000F0B2
:101BC000BAFB00214FF0804000F0B7FB00214FF03E
:101BD000804000F0B4FB00214FF0804000F0B1FBEA
:101BE00009B030BD0008014000B587B001210220D6
:101BF000FFF7CEFC01210420FFF7EAFC06A8FEF760
:101C0000BAFEC020ADF8180004208DF81B00032098
:101C10008DF81A0006A91D48FEF7CDFD1C4800F0FE
:101C2000A1F803A800F00EFC4FF6FF70ADF810000D
:101C30000020ADF80C00ADF81200ADF80E0003A9BD
:101C4000134800F0ADFB0A231A460321104800F0A8
:101C50007DF9684600F002FA0620ADF808006946F2
:101C60000B4800F0A5F90121094800F069F80122AC
:101C70001146074800F0FBF900200549243108808F
:101C80000121034800F062F807B000BD00080140E0
:101C90000004004000B587B001210420FFF778FC64
:101CA00001210820FFF794FC06A8FEF764FEC0207F
:101CB000ADF8180004208DF81B0003208DF81A00E1
:101CC00006A91D48FEF777FD1C4800F04BF803A855
:101CD00000F0B8FB4FF6FF70ADF810000020ADF833
:101CE0000C00ADF81200ADF80E0003A9134800F087
:101CF00057FB0A231A460321104800F027F96846CB
:101D000000F0ACF90620ADF8080069460B4800F079
:101D10004FF90121094800F013F801221146074844
:101D200000F0A5F90020054924310880012103486D
:101D300000F00CF807B000BD000C014000080040A6
:101D4000CA4302827047CA430282704721B10288A7
:101D500042F00102028004E002884FF6FE731A404E
:101D60000280704710B504466848844208D10121BA
:101D7000C014FFF73DFC0021E014FFF739FCC4E07C
:101D8000B4F1804F08D101210846FFF711FC002172
:101D90000120FFF70DFCB8E05D48844208D1012125
:101DA0000220FFF705FC00210220FFF701FCACE058
:101DB0005848844208D101210420FFF7F9FB002193
:101DC0000420FFF7F5FBA0E05348844208D101212D
:101DD0000820FFF7EDFB00210820FFF7E9FB94E066
:101DE0004E48844208D101211020FFF7E1FB002179
:101DF0001020FFF7DDFB88E04948844208D101212B
:101E00002020FFF7D5FB00212020FFF7D1FB7CE04D
:101E10004448844208D101214014FFF7E9FB002126
:101E20006014FFF7E5FB70E03F48844209D10121CF
:101E3000C804FFF7DDFB00214FF40020FFF7D8FBBB
:101E400063E03A48844209D101210805FFF7D0FB3D
:101E500000214FF48010FFF7CBFB56E0344884425A
:101E600009D101214805FFF7C3FB00214FF4001001
:101E7000FFF7BEFB49E02F48844208D101214020F2
:101E8000FFF796FB00214020FFF792FB3DE02A4838
:101E9000844208D101218020FFF78AFB00218020A5
:101EA000FFF786FB31E02548844208D101218015E7
:101EB000FFF77EFB0021A015FFF77AFB25E0204805
:101EC000844209D101210804FFF792FB00214FF45D
:101ED0008030FFF78DFB18E01A48844209D10121B8
:101EE0004804FFF785FB00214FF40030FFF780FB2B
:101EF0000BE01548844208D101218804FFF778FBE4
:101F000000214FF48020FFF773FB10BD002C01402F
:101F10000004004000080040000C00400010004099
:101F20000014004000340140004C014000500140CA
:101F30000054014000180040001C004000200040F8
:101F4000004001400044014000480140F0B50C460B
:101F500015461E460021002200230189028B038CB6
:101F60004FF6F877394021434FF6FC473A4040F2AC
:101F700001173A434FF6DD773B404FF6FF7707EA0C
:101F800006172F433B43018102830384F0BD30B524
:101F90000246002000230024158A05EA01039589E2
:101FA00005EA010413B10CB1012000E0002030BDAE
:101FB00070B505460C46244885420ED0234885421C
:101FC0000BD0B5F1804F08D02148854205D021487B
:101FD000854202D02048854200D100E000BF208821
:101FE00050B92389A28861882846FFF74FFCE18811
:101FF000284600F0A9F925E0208804280AD1238981
:10200000A28861882846FFF781FCE188284600F015
:10201000A4F917E0208808280AD12389A2886188BA
:102020002846FFF7BFFCE188284600F0A3F909E045
:102030002389A28861882846FFF7FCFCE1882846AE
:1020400000F0A1F970BD0000002C014000340140F7
:102050000004004000080040000C00400021018006
:102060004180012181800021C180018170471AB126
:1020700083890B43838102E083898B43838170478B
:1020800070B5002400220023058C4FF6FE76354003
:102090000584028C8388048B4FF68F752C40B51E07
:1020A0002C400D882C43751E2A400D892A434D88EB
:1020B0002A43144DA8420BD0134DA84208D0134D0B
:1020C000A84205D0124DA84202D0124DA84213D109
:1020D0004FF6F7752A404D892A434FF6FB752A4083
:1020E0008D882A434FF6FF652B404FF6FF552B4056
:1020F0008D892B43CD892B4383800483CD888586AE
:10210000028470BD002C01400034014000400140B9
:1021100000440140004801400A460021018B4FF66F
:10212000F7731940114301837047000070B5002414
:1021300000220023058C4FF6EF7635400584028C93
:102140008388048B48F6FF752C404FF6FF452C40E2
:102150000D884FF6FF7606EA05252C434FF6DF750E
:102160002A400D8906EA05152A434D8806EA051519
:102170002A43154DA84202D0144DA8421DD14FF656
:102180007F752A404D894FF6FF7606EA05152A43EA
:102190004FF6BF752A408D8806EA05152A434FF68B
:1021A000FF352B404FF2FF752B408D8906EA8505E0
:1021B0002B43CD8906EA85052B4383800483CD8894
:1021C0000587028470BD0000002C014000340140EE
:1021D0000A460021018B4FF2FF7319404FF6FF733F
:1021E00003EA0223194301837047000070B50024FD
:1021F00000220023058C4FF6FF6635400584028CD3
:102200008388848B4FF68F752C404FF6FC752C40DD
:102210000D882C434FF6FF552A400D894FF6FF7667
:1022200006EA05252A434D8806EA05252A43154D69
:10223000A84202D0144DA8421DD14FF2FF752A408A
:102240004D894FF6FF7606EA05252A434FF6FF35FE
:102250002A408D8806EA05252A434EF6FF752B4055
:102260004DF6FF752B408D8906EA05152B43CD8968
:1022700006EA05152B4383808483CD8885870284F5
:1022800070BD0000002C0140003401400A460021CE
:10229000818B4FF6F773194011438183704700001B
:1022A00070B5002200230024058C4EF6FF763540E1
:1022B0000584038C8488828B48F6FF752A404FF68C
:1022C000FF452A400D884FF6FF7606EA05252A438A
:1022D0004DF6FF752B400D8906EA05352B434D88D9
:1022E00006EA05352B430B4DA84202D00A4DA84201
:1022F00008D14BF6FF752C408D894FF6FF7606EA24
:1023000085152C4384808283CD88A0F840500384B7
:1023100070BD0000002C0140003401400A4600213D
:10232000818B4FF2FF7319404FF6FF7303EA0223CC
:102330001943818370478186704701877047818781
:102340007047A0F840107047028B4FF6F3731A40A5
:102350000283028B0A4302837047028B4FF2FF33E2
:102360001A400283028B4FF6FF7303EA01231A43DC
:1023700002837047828B4FF6F3731A408283828BFD
:102380000A4382837047828B4FF2FF331A40828365
:10239000828B4FF6FF7303EA01231A43828370474F
:1023A000002202881D4B98420ED01D4B98420BD044
:1023B000B0F1804F08D01B4B984205D01A4B984281
:1023C00002D01A4B984204D14FF68F731A404B88B3
:1023D0001A43174B984207D0164B984204D04FF639
:1023E000FF431A40CB881A4302808B8883850B8871
:1023F00003850A4B98420BD0094B984208D00E4BEC
:10240000984205D00D4B984202D00D4B984201D115
:102410000B7A03860123838270470000002C014061
:10242000003401400004004000080040000C00405F
:1024300000100040001400400040014000440140F2
:10244000004801404FF6FF71818000210180C1806A
:1024500041800172704700007FB505460C4601219E
:10246000C802FFF7B5F81648FFF77CFCADF8085036
:10247000ADF804400020ADF80600ADF80A008DF874
:102480000C0001A90E48FFF78BFF19208DF8000002
:1024900001208DF801008DF802008DF803006846D8
:1024A000FEF7CCFD01210648FFF74AFC0122114648
:1024B0000348FFF7DCFD01210148FFF747FC7FBD22
:1024C000002C014010B540F225511D4800F016FACD
:1024D00010B31B4800F0CEFAC4B21A48008800F4CA
:1024E0000040C8B91748008800F4804060B10A2C49
:1024F00003D000201349088021E01248008840F4EE
:102500000040104908801AE00D2C06D10D480088C3
:1025100040F480400B49088011E00A480088C0F36D
:102520000D0009490C5407480088401C05490880E3
:1025300008460088B0F5487F01DB0020088010BD08
:10254000003801409C000020CC01002030B587B04D
:1025500004460D46002D47D1012144F20400FFF747
:1025600037F84FF40070ADF8180003208DF81A000A
:1025700018208DF81B0006A94348FEF71CF94FF4FC
:102580008060ADF8180004208DF81B0006A93E48B5
:10259000FEF711F925208DF8040003208DF80500C1
:1025A0008DF8060001208DF8070001A8FEF746FD12
:1025B00002940020ADF80C00ADF80E00ADF810004C
:1025C000ADF814000C20ADF8120002A92F4800F05D
:1025D000E5F9012240F225512C4800F0B9F901211A
:1025E0002A4800F07FF94CE0012144F20800FEF790
:1025F000EFFF01210846FEF7EBFF4020ADF8180081
:1026000003208DF81A0018208DF81B0006A9204819
:10261000FEF7D1F88020ADF8180004208DF81B00DB
:1026200006A91B48FEF7C7F825208DF804000320F3
:102630008DF805008DF8060001208DF8070001A82F
:10264000FEF7FCFC01210420FEF740F90294002073
:10265000ADF80C00ADF80E00ADF81000ADF81400A8
:102660000C20ADF8120002A9084800F097F90122E9
:1026700040F22551054800F06BF90121034800F0B4
:1026800031F907B030BD00000008014000380140BA
:10269000000C014010B540F225515E4800F02EF9C3
:1026A00000287DD05B4800F0E5F9C4B221465A48C5
:1026B00000F0E5F9292C04D1002058490870584948
:1026C00008705648007801286BD155480178007889
:1026D000401C534A10705348445410460078042854
:1026E000F2D150480078312817D14E48407831282F
:1026F00013D14C48807831280FD14A48C07831280E
:102700000BD10020484908704849087048490870B2
:10271000484908700120484908704248007830282C
:1027200018D140484078312814D13E48807831286B
:1027300010D13C48C07831280CD100203A490870AB
:102740003A49087001203A49087000203949087058
:102750003949087033480078312818D13148407819
:10276000302814D12F488078312810D12D48C078D6
:1027700031280CD100202C4908702C4908702C49B4
:10278000087001202B49087000202B49087025484B
:10279000007831281AD123484078312816D101E039
:1027A00036E030E01F48807830280FD11D48C078CF
:1027B00031280BD101201C49087000201B490870EA
:1027C0001B4908701B4908701B49087015480078A0
:1027D000312818D113484078312814D11148807815
:1027E000312810D10F48C07830280CD100200E4974
:1027F000087001200D49087000200D4908700D492E
:1028000008700D490870282C02D101200349087076
:1028100010BD00000048004000380140DC000020EE
:10282000E1000020DD000020A8000020A900002019
:10283000AA000020AB000020AC00002010B586B03C
:10284000044601218804FEF7A3FE01210820FEF7BB
:10285000BFFE4FF48060ADF8140003208DF8160021
:1028600018208DF8170005A91C48FDF7A4FF4FF4A8
:102870000060ADF8140004208DF8170005A9174872
:10288000FDF799FF27208DF8000000208DF801004A
:102890008DF8020001208DF803006846FEF7CEFB9C
:1028A00001940020ADF80800ADF80A00ADF80C0066
:1028B000ADF810000C20ADF80E0001A9084800F09A
:1028C0006DF8012240F22551054800F041F8012140
:1028D000034800F007F806B010BD0000000C0140EE
:1028E0000048004021B1828942F40052828104E014
:1028F00082894DF6FF731A408281704770B5024697
:10290000002400230025002040F66A16B14200D1C1
:1029100000BFC1F3421501F01F03012606FA03F3BD
:10292000012D02D19689334006E0022D02D1168A8C
:10293000334001E0968A33400C12012606FA04F473
:102940001688344013B10CB1012000E0002070BDA6
:10295000F0B50346002400260025002040F66A1743
:10296000B94200D100BF1846C1F3421401F01F065E
:10297000012707FA06F5012C01D10C3004E0022CE6
:1029800001D1103000E014301AB107682F430760FE
:1029900002E00768AF430760F0BD00002DE9F04793
:1029A00086B005460E460024A24600BFA146002779
:1029B000B08900B100BF2F462C8A4CF6FF7004404E
:1029C000F08804432C82AC894EF6F3100440B088A2
:1029D00031890843718908430443AC81AC8A4FF6BE
:1029E000FF400440B0890443AC8201A8FEF710FE0A
:1029F0001F48874202D1DDF810A001E0DDF80CA0ED
:102A0000A88900F4004040B10AEBCA0000EB0A10AC
:102A100031684900B0FBF1F807E00AEBCA0000EBAF
:102A20000A1031688900B0FBF1F86420B8FBF0F0BF
:102A300004012009642101FB1089A88900F40040E9
:102A400040B1322000EBC900B0FBF1F000F007000C
:102A5000044308E0322000EB09106421B0FBF1F0E0
:102A600000F00F0004432C8106B0BDE8F0870000A1
:102A70000038014001468888C0F308007047C1F360
:102A800008028280704700BFFEE7490050EAC1207B
:102A900018BF04204A0D18BF40F0010040F2FF7239
:102AA000B2EB515F08BF40F00200012808BF0520CB
:102AB00070472DE9F0414F1E00EBC7010446D1E9F4
:102AC000000115461E4637F006020DD02A46334651
:102AD00003F0ECF97F1E04EBC703D3E9002302F0F7
:102AE000C9FF37F00602F1D1022F25D0042F13D0F1
:102AF000062F18BFBDE8F0812A46334603F0D6F909
:102B0000D4E90A2302F0B6FF2A46334603F0CEF991
:102B1000D4E9082302F0AEFF2A46334603F0C6F993
:102B2000D4E9062302F0A6FF2A46334603F0BEF995
:102B3000D4E9042302F09EFF2A46334603F0B6F997
:102B4000D4E9022302F096FF2A46334603F0AEF999
:102B5000D4E90023BDE8F04102F08CBF012204F06B
:102B60005AB802F087BF002213461046114603F000
:102B700031B80000024A0020110704F04CB80000F0
:102B800001FDFFFF00BF70472DE9FE4F0746884655
:102B90000026684601F002FA002444E057F82400B9
:102BA00058F82410A0EB010ABAF1000F01DB5146DE
:102BB00001E0CAF10001084603F01EFE83464FF013
:102BC0008F4103F0E7FC81465DF82400002103F00B
:102BD000A3FD18D05DF82410484603F0DBFC8246C4
:102BE0004FF07E5103F070FF054600BF25F0004016
:102BF00082460F48416A504603F02AFF12D2012054
:102C0000A04006430EE00A48C169484603F020FE92
:102C100005D30748016A484603F01AFF02D2012093
:102C2000A0400643641C032CB8DB3046BDE8FE8F91
:102C3000CC6C00082DE9F04D8D4F21F0004A86B094
:102C400005460C46BA452ADBAAEB070028430AD002
:102C50008848824501DC1AD1CDB106B02846BDE8CE
:102C6000F04DFFF77BBF844A844B284603F01EF9E2
:102C700007460E46824A834B2846214603F016F942
:102C800006B03A463346BDE8F04D02F0F3BE0120EF
:102C9000FDF773FB06B0BDE8F04DFFF764BF7A485F
:102CA000824542DABAF1795F0BDA2846FFF7EDFE8A
:102CB000042808BFFFF75EFF284606B02146BDE89E
:102CC000F08D2A460B46104603F0F0F88346024684
:102CD0006E480E460B4606217844FFF7EAFE5A4638
:102CE000334603F0E3F8804669488A465A4633463D
:102CF00004217844FFF7DDFE5A46334603F0D6F848
:102D000000223B4602F0B6FE02460B4640465146C4
:102D100002F060FF2A46234603F0C8F806B02A46B0
:102D20002346BDE8F04D02F0A5BE284624F0004140
:102D300000223D463B4603F0B7F94FF0FF3203F067
:102D40006AFF0646024653480F460B460621784462
:102D5000FFF7AFFE32463B4603F0A8F8CDE900018D
:102D60004D4832463B4604217844FFF7A2FE3246E6
:102D70003B4603F09BF800222B4602F07BFE834685
:102D800002913046394602F0B9FD804643480D466F
:102D9000504517DCDDE900015A46029B02F01AFF9C
:102DA00042462B4603F082F842462B4602F062FE72
:102DB000012203F030FF304A304B03F067FA304A0B
:102DC000304B4CE04FF0000A52460B46404602F0B2
:102DD00051FECDE9031052462B461046194603F02A
:102DE00065F832463B4603F05FF9DDE9033202F055
:102DF000F1FE06460F46DDE900015A46029B02F04D
:102E0000E9FE8346009101223046394603F003FF74
:102E1000194A1A4B03F048F906460F46012240466C
:102E2000294603F0F8FE5A46009B03F03FF832466D
:102E30003B4603F02BFA06460F4601225046294630
:102E400003F0E9FE0E4DDFF858802A46434603F0B2
:102E50002BF932463B4603F027F92A46434603F056
:102E600023F9002CD8BF81F0004106B0BDE8F08DF9
:102E70000000F03F0000F07F075C143326A6913C71
:102E8000182D4454FB21F93F0000E03FD4630000BB
:102E9000EA6300005E630000746300003333EF3FB9
:102EA000FB21E93F2DE9F84F04460D4621F0004093
:102EB00000917349814211DC7249884201DC06D1DC
:102EC0002CB120462946BDE8F84FFFF747BE6E48B3
:102ED000002DCCBF6D496E49BDE8F88F6D49814228
:102EE00011DD6D498142D8BF4FF0FF366DDD2046C0
:102EF0002946FFF7CAFD042808BFFFF73BFE20461E
:102F00002946BDE8F88F6549654F25F000458142A7
:102F100033DD6449814219DD002632464FF080439B
:102F20002046294602F0A6FD80468A460122204618
:102F3000294603F070FE00223B4603F0A7F9424603
:102F4000534602F047FE04460D463EE001260022AD
:102F5000BA463B462046294602F08CFD80460F4685
:102F6000002253462046294603F090F942463B464C
:102F700002F030FE04460D4627E04B4981421BDD3E
:102F8000DFF828A10226002253462046294602F0F7
:102F90008DFF00223B4602F06DFD80460F46002269
:102FA00053462046294603F071F942463B4602F05B
:102FB00011FE04460D4608E0032622462B4600205B
:102FC0003B4902F007FE04460D4622462B461046BA
:102FD000194602F06BFF8B46824602460B4602F012
:102FE00065FF07460246334888460B46062178446B
:102FF000FFF75FFD52465B4602F058FF82462E48BF
:103000008B463A46434605217844FFF752FD3A463F
:10301000434602F04BFF02460B46002E50465946EF
:103020000CDA02F027FD22462B4602F03FFF01B0EA
:1030300022462B46BDE8F04F03F036B802F01AFDE9
:1030400022462B4602F032FF1C4A7A4402EBC603AA
:10305000D3E9002303F01AF922462B4603F016F9B0
:10306000174A7A4402EBC603D3E9002303F01CF8A5
:10307000009A002AB8BF81F00041BDE8F88F000037
:10308000000010440000F07F182D4454FB21F93F4C
:10309000FB21F9BF0000DC3F0000203E0000F33FB1
:1030A0000000F03F0000E63F008003400000F83FD2
:1030B0000000F0BF7661000034610000D2600000C3
:1030C0009A6000002DE9F04D9446CCF1000423F005
:1030D00000464CEA0404524F46EAD4749A468846A5
:1030E00021F00042BC4206D8454240EA050442EACB
:1030F000D474BC4204D9BDE8F04D6246FFF731BD3F
:10310000AAF14055A5F17F6555EA0C040BD00224C5
:1031100004EAAA74434DDFF810E144EAD87452EA95
:10312000000B04D00CE0BDE8F04DFFF7BBBE002C57
:1031300014BF012CBDE8F08D022C30D0032C32D00E
:1031400056EA0C0B0AD0BE4220D1BA4209D126F071
:10315000804622F080423346114617E000291ADBF0
:1031600025E0DFF8C8B0FB44002C04BFDBE9000118
:10317000BDE8F08D012C02BFDBE9000181F00041C8
:10318000BDE8F08D022C0AD0032C0CD0BA4212D12B
:10319000B8F1000F0BDA23482549BDE8F08D284629
:1031A0002449BDE8F08D28467146BDE8F08D1D48E4
:1031B0002149BDE8F08D921B12153C2AC4BF194865
:1031C0001D490EDCBAF1000FBEBF12F13C0F00200A
:1031D000014606DB624602F0FDFC21F00041FFF7EC
:1031E00061FE002C08BFBDE8F08D012C04BF81F00A
:1031F0000041BDE8F08D114A114B022C07D003F0BD
:1032000045F82A46BDE8F04D0A4B03F03FB803F0FD
:103210003DF82A46BDE8F04D064B02F045BF0000E0
:103220000000F07F182D4454FB2109C02E600000DF
:10323000FB21F9BFFB210940FB21F93F075C143357
:1032400026A6A13C2DE9F05F05460C460F48016813
:10325000284603F039FC8146204603F0CDFA834628
:103260000B480168584603F027FB80464946094849
:10327000006803F021FB8246414603F01DF9074632
:1032800003F07EFA06463046BDE8F09FB800002005
:10329000B4000020B00000202DE9F0410446E078A1
:1032A00000F0C006E07800F03F05607800F0010013
:1032B00098B1EF102846E91705EB5171C910A5EB3D
:1032C000C101491C01F0FF080B48006820B10A4801
:1032D000414602683846904700BF607800F0080019
:1032E00030B10548406818B1B011034A51688847A9
:1032F0000020BDE8F0810000F400002010B56FF060
:103300000400FEF77DFA0A4800680A49B0FBF1F0B4
:10331000094908700846007800EB4001C1EBC01075
:103320004FF6FF7101EAC0000449088010BD00009B
:103330000000002000127A00280000202A0000204F
:103340000146114A12884A434FF0E0235A61002295
:103350009A611A46126942F001021A6100BF4FF0E9
:10336000E022106900F001021AB100F48032002A54
:10337000F5D04FF0E022126922F001024FF0E02375
:103380001A6100229A6170472A0000200146114A02
:1033900012784A434FF0E0235A6100229A611A469C
:1033A000126942F001021A6100BF4FF0E022106979
:1033B00000F001021AB100F48032002AF5D04FF07B
:1033C000E022126922F001024FF0E0231A6100228C
:1033D0009A6170472800002038B5044664B1202067
:1033E0008DF8000028208DF8010030208DF80200B3
:1033F00038208DF8030004E0A32204216846FCF77E
:1034000034FF6A46042140F69E2002F0FBF801F0EA
:10341000E5FC38BD3EB5044602208DF80000CA2008
:103420008DF80100E3208DF8020009208DF80300DB
:103430006A460421682002F0E5F8A3208DF8000018
:1034400004F0400048B1C0208DF80100C8208DF87C
:103450000200C2208DF8030006E0A3208DF80100D1
:103460008DF802008DF8030004F4C07048B1C42048
:103470008DF80400CC208DF80500C6208DF80600DC
:1034800006E0A3208DF804008DF805008DF80600F5
:10349000A3208DF807008DF808008DF809006A4612
:1034A0000A2140F6A72002F0ADF804F0030018B19D
:1034B00020208DF8000002E0D8208DF800006A4638
:1034C000012140F6B62002F09DF804F0200018B16A
:1034D000012000F0ADF802E0002000F0A9F804F4AB
:1034E000C07008B304F4807060B1B2208DF80000A1
:1034F0008B208DF80100B6208DF802009B208DF8FE
:1035000003000BE0B0208DF8000080208DF8010052
:10351000B4208DF8020090208DF803006A46042143
:1035200040F6A22002F06EF804F0010020B3F8206B
:103530008DF800006A4601214FF40B6002F062F83A
:10354000FA21072000F034FC072000F0FBFB0120EB
:1035500000F01BFC642000F0FBFC4FF4FA7000F05C
:103560000AFDC821304800F0ABFB282000F0C4FB66
:103570000A2000F0D4FB08E0D8208DF800006A464D
:1035800001214FF40B6002F03DF804F0020018B185
:10359000D9208DF8000002E0D8208DF800006A469E
:1035A000012140F23D7002F02DF804F0040018B142
:1035B000012000F069F802E0002000F065F804F056
:1035C000100018B10120FFF707FF02E00020FFF70D
:1035D00003FF44F008001549488101F0FFFB00207B
:1035E0001249887304F0400018B10846807B801DA2
:1035F000887304F4C07020B10C48807B801D0B4997
:10360000887304F0140020B10848807B103007490B
:10361000887304F0030020B10448807B001D034937
:10362000887300203EBD000009E3CA02F4000020B8
:103630003EB504466CB10EA1D1E900208968CDE900
:10364000002002916A4609214FF4976001F0DAFFE9
:103650003EBD0AA2D2E900109268CDE901020091B4
:103660006A4609214FF4976001F0CCFFF0E70000B3
:10367000B8AAB38DB4980D355D000000B8AAAAAA07
:10368000B088C3C5C700000038B5044664B1C02087
:103690008DF80000C2208DF80100C4208DF80200D2
:1036A000C6208DF8030004E08B2204216846FCF755
:1036B000DCFD6A46042140F6982001F0A3FF01F0EA
:1036C0008DFB38BD10B5C8234FF48062024940F627
:1036D000F63001F017FA10BDF46C00082DE9F04F38
:1036E0008DB00746884615469B46DDE9166A0024DC
:1036F000002030806D49887B524605A901F0CEFA42
:1037000018B1601E0DB0BDE8F08F6848807A00F0F7
:103710001400002867D09DF8140000069DF81510CD
:1037200040EA01409DF8161040EA01209DF817106C
:10373000084328609DF8180000069DF8191040EA1B
:1037400001409DF81A1040EA01209DF81B10084323
:1037500068609DF81C0000069DF81D1040EA0140BD
:103760009DF81E1040EA01209DF81F100843A86034
:103770009DF8200000069DF8211040EA01409DF8C8
:10378000221040EA01209DF823100843E86004F16C
:103790001000C4B2286800140190686800140290F8
:1037A000A86800140390E86800140490019840434E
:1037B000029901FB0100039901FB0100049901FB3F
:1037C0000109B9F1706F02DBB9F1885F05DD01F025
:1037D00005FB00203080401E94E7B6F9000040F45D
:1037E0008070308000BF3148807A00F0400020B304
:1037F00005A9601C085C095D40EA012000B2A8F838
:10380000000005A9E01C095C05AAA01C105C41EAA7
:10381000002000B2A8F8020005A9601D095C201D67
:10382000105C41EA002000B2A8F80400A01DC4B258
:10383000B6F9000040F0080030801C48408900F4D0
:10384000C07008B305A9601C085C095D40EA01204E
:1038500000B2388005A9E01C095C05AAA01C105C18
:1038600041EA002000B2788005A9601D095C201D96
:10387000105C41EA002000B2B880A01DC4B2B6F9C5
:10388000000040F070003080B8F80200084908805D
:103890007888084908800548807A00F0030018B14C
:1038A00005A90819FFF7F8FC00202BE7F400002019
:1038B000940000209600002070B588B0064601A84C
:1038C00000F0A4FFBDF804000021C90341EA5045FF
:1038D000C4034448007A00F0030056F82000059025
:1038E0004048007A00F0040010B10598404205906D
:1038F0003C48007AC0F3C10056F8200006903948D1
:10390000007A00F0200010B1069840420690354839
:10391000007AC0F3811056F82000079031480089E2
:1039200000F4807010B10798404207900598C117C5
:10393000A0FB042301FB043100FB0510810041EAD8
:10394000927005900698C117A0FB042301FB043177
:1039500000FB0510810041EA927006900798C1179C
:10396000A0FB042301FB043100FB0510810041EAA8
:10397000927007900598000E8DF808000598000CCD
:103980008DF809000598000A8DF80A000598C0B264
:103990008DF80B000698000E8DF80C000698000CB0
:1039A0008DF80D000698000A8DF80E000698C0B23A
:1039B0008DF80F000798000E8DF810000798000C86
:1039C0008DF811000798000A8DF812000798C0B210
:1039D0008DF8130002AA0C214FF4257001F012FE9D
:1039E00008B070BDF400002030B585B0044616A2C2
:1039F00007CA02AB07C3C82C03DD4FF0FF3005B088
:103A000030BDC82090FBF4F0401E85B2280A8DF826
:103A10000000E8B28DF801006A46022140F216204B
:103A200001F0F0FD10B14FF0FF30E8E702AA0C21E1
:103A300040F6C12001F0E6FD10B14FF0FF30DEE7A7
:103A4000044884810020DAE7FEF2ABC4AAF1DFDF8C
:103A5000BBAFDFDFF40000201FB504464848007A02
:103A600000F0030054F8200001904548007A00F06F
:103A7000040010B10198404201904148007AC0F31F
:103A8000C10054F8200002903D48007A00F0200068
:103A900010B10298404202903948007AC0F3811078
:103AA00054F8200003903648008900F4807010B16B
:103AB0000398404203903349019880FB0101800F35
:103AC00040EA810001902F49029880FB011082009A
:103AD00042EA917002902B49039880FB011082000A
:103AE00042EA917003900198000E8DF80000019851
:103AF000000C8DF801000198000A8DF80200019871
:103B0000C0B28DF803006A4604214FF4747001F0CE
:103B100079FD18B14FF0FF3004B010BD0298000ECF
:103B20008DF800000298000C8DF801000298000A40
:103B30008DF802000298C0B28DF803006A46042195
:103B40004FF4757001F05EFD10B14FF0FF30E3E708
:103B50000398000E8DF800000398000C8DF801000A
:103B60000398000A8DF802000398C0B28DF8030094
:103B70006A4604214FF4767001F044FDCCE7000062
:103B8000F400002009E3CA0210B586B0044647A03D
:103B90000068039046A00068029046A0006801906B
:103BA00045A00068009004F0030003A9085C8DF8AC
:103BB000140003A8C4F3C101405C8DF8150003A8EC
:103BC000C4F38111405C8DF8160004F0030002A9D3
:103BD000085C8DF8100002A8C4F3C101405C8DF8A8
:103BE000110002A8C4F38111405C8DF8120005AAEF
:103BF000032140F2264001F005FD18B14FF0FF30DF
:103C000006B010BD04AA032140F22A4001F0FAFCDC
:103C100010B14FF0FF30F3E7019805900098049041
:103C200004F0040058B19DF8140040F001008DF834
:103C300014009DF8100040F001008DF8100004F011
:103C4000200058B19DF8150040F001008DF81500D6
:103C50009DF8110040F001008DF8110004F480700F
:103C600058B19DF8160040F001008DF816009DF83F
:103C7000120040F001008DF8120005AA03214FF454
:103C8000886001F0BFFC10B14FF0FF30B8E704AA24
:103C9000032140F2314001F0B5FC10B14FF0FF308C
:103CA000AEE7064804810020AAE700004CCD6C0076
:103CB0000CC92C003656760026466600F40000201B
:103CC000F8B505460E464FF47A7095FBF0F000FB10
:103CD00006F4200E8DF80000200C8DF80100200A5B
:103CE0008DF80200E0B28DF803006A4604214FF41B
:103CF000AE7001F087FCF8BD38B50446052094FB92
:103D0000F0F084B220128DF80000E0B28DF80100CE
:103D10006A4602214FF4AD7001F074FC38BD38B52D
:103D20000446052094FBF0F084B220128DF80000C8
:103D3000E0B28DF801006A4602214FF4AC7001F048
:103D400061FC38BD38B504460020009004F0010045
:103D500020B19DF8000040F03000009004F0020017
:103D600020B19DF8000040F00C00009004F0040029
:103D700020B19DF8000040F0030000906A46012148
:103D80004FF4A47001F03EFC38BD38B50446012C58
:103D900001DA012402E0042C00DD0424601EC0B21C
:103DA00000906A46012140F24F1001F02BFC38BD13
:103DB0002DE9FC4706460F4606F0070010B1B7F59F
:103DC000C86F03DD4FF0FF30BDE8FC87384602F0D6
:103DD0002BFD8146594902F0DDFB8046684600F024
:103DE000EFFC9DF80000022806D0042816D0082811
:103DF00026D0102848D135E04FF08D41404602F0E2
:103E00005BFD814602F0D8FC84B24D49404602F089
:103E100053FD814602F0D0FC85B238E04FF08C4172
:103E2000404602F049FD814602F0C6FC84B2454995
:103E3000404602F041FD814602F0BEFC85B226E01C
:103E40004FF08B41404602F037FD814602F0B4FC52
:103E500084B23D49404602F02FFD814602F0ACFCA1
:103E600085B214E04FF08A41404602F025FD8146BC
:103E700002F0A2FC84B23549404602F01DFD8146A5
:103E800002F09AFC85B202E04FF0FF309CE700BFE1
:103E900020128DF80400E0B28DF8050028128DF88C
:103EA0000600E8B28DF8070006F00100A0B101AAF3
:103EB00002214FF4EA7001F0A5FB10B14FF0FF3082
:103EC00082E70DF1060202214FF4927001F09AFB95
:103ED00010B14FF0FF3077E706F00200A0B101AA61
:103EE00002214FF4EC7001F08DFB10B14FF0FF3068
:103EF0006AE70DF1060202214FF4947001F082FB93
:103F000010B14FF0FF305FE706F00400A0B101AA46
:103F100002214FF4EE7001F075FB10B14FF0FF304D
:103F200052E70DF1060202214FF4967001F06AFB90
:103F300010B14FF0FF3047E7002045E7000048434D
:103F4000000040460000C045000040450000C0445D
:103F500038B50446052094FBF0F085B228128DF8A0
:103F60000000E8B28DF801006A4602214FF4EF70BC
:103F700001F048FB38BD38B50446052094FBF0F04D
:103F800085B228128DF80000E8B28DF801006A466B
:103F900002214FF4ED7001F035FB38BD7CB50546CC
:103FA00028494968087801AB04220D21FCF774FD0B
:103FB00008B107207CBD9DF80700C0F301109DF8F3
:103FC000041001F0E00140EAE1008DF800009DF8E6
:103FD0000700C0F381009DF8051001F0E00140EA00
:103FE000E1008DF801009DF8070000F003009DF846
:103FF000061001F0E00140EAE1008DF80200002423
:104000001CE01DF8040018B9002045F8240013E056
:104010000D4845F8240006E055F824000B4902F04D
:104020004BFC45F824001DF80400401EC0B20DF8FA
:1040300004000028F0D100BF601CC4B2032CE0DBF8
:104040000020B7E7680000207B14AE3E1D5A843F75
:104050002DE9F04F87B005460C46914601208DF8BA
:10406000100000208DF81100FE4A1268917CFD4A74
:104070005268107804AB0222FCF732FE20B14FF0F8
:10408000FF3007B0BDE8F08FC820FFF759F90020D6
:104090008DF81000F34A1268D17BF24A526810780A
:1040A00004AB0122FCF71CFE10B14FF0FF30E8E733
:1040B000EC4A12685179EB4A5268107804AB01223D
:1040C000FCF70EFE10B14FF0FF30DAE7E54A126858
:1040D000917CE44A5268107804AB0122FCF700FEA0
:1040E00010B14FF0FF30CCE7DE4A1268D17DDD4AD7
:1040F0005268107804AB0122FCF7F2FD10B14FF0CA
:10410000FF30BEE7D74A12681179D64A5268107854
:1041100004AB0122FCF7E4FD10B14FF0FF30B0E733
:104120000C208DF81000CF4A12681179CD4A5268E0
:10413000107804AB0122FCF7D3FD10B14FF0FF3033
:104140009FE70F20FFF7FCF8C648806A407A8DF899
:104150001000C44A12689178C24A5268107804ABC1
:104160000122FCF7BDFD10B14FF0FF3089E7BD48DB
:10417000806A007A8DF81000BA4A12685178B94AFC
:104180005268107804AB0122FCF7AAFD10B14FF081
:10419000FF3076E7B9F1000F07D0B248806A807A25
:1041A00040F0E0008DF8100004E0AE48806A807AAC
:1041B0008DF81000AB4A12689179AA4A52681078BB
:1041C00004AB0122FCF78CFD10B14FF0FF3058E733
:1041D000B9F1000F07D0A348806AC07A40F0E00030
:1041E0008DF8100003E0A048C07A8DF810009D4AB9
:1041F0001268D1799B4A5268107804AB0122FCF70F
:104200006FFD10B14FF0FF303BE7B9F1000F02D066
:10421000C820FFF795F840208DF81000914A1268E9
:104220001179904A5268107804AB0122FCF758FDCE
:1042300010B14FF0FF3024E778208DF81000894A44
:1042400012685179874A5268107804AB0122FCF752
:1042500047FD10B14FF0FF3013E783498889FFF71E
:104260006FF800208DF810007E4A126851797D4A5F
:104270005268107804AB0122FCF732FD10B14FF008
:10428000FF30FEE6774A1268917A764A52681078D3
:1042900004AB0222FCF700FC10B14FF0FF30F0E657
:1042A0009DF811009DF8101040EA012B0C209BFB9B
:1042B000F0F0C6B20020A86068602860A06060606E
:1042C0002060824665E0674A1268D17A654A526882
:1042D000107804AB0C22FCF7DFFB10B14FF0FF307D
:1042E000CFE69DF811009DF8101040EA012000B2C1
:1042F000ADF808009DF813009DF8121040EA012067
:1043000000B2ADF80A009DF815009DF8141040EABF
:10431000012000B2ADF80C00BDF908102068084477
:104320002060BDF90A10606808446060BDF90C1097
:10433000A0680844A0609DF817009DF8161040EA98
:10434000012000B2ADF800009DF819009DF818108A
:1043500040EA012000B2ADF802009DF81B009DF874
:104360001A1040EA012000B2ADF80400BDF90010B7
:10437000286808442860BDF902106868084468602D
:10438000BDF90410A8680844A8600AF1010000F013
:10439000FF0AB24597DB3448D0F800C02868C1173F
:1043A000090441EA10410704624600233846FBF73E
:1043B0000CFF32460023CDE90201FBF706FF28601F
:1043C0002948D0F800C06868C117090441EA1041C3
:1043D0000704624600233846FBF7F7FE3246002307
:1043E000CDE90201FBF7F1FE68601F48D0F800C07C
:1043F000A868C117090441EA104107046246002376
:104400003846FBF7E2FE32460023CDE90201FBF716
:10441000DCFEA8601448D0F804C02168C817000466
:1044200040EA11480F046246002338464146FBF734
:10443000CCFE32460023CDE90201FBF7C6FE206028
:104440000948D0F804C06068C117090441EA104166
:104450000704624600233846FBF7B7FE32460023C6
:1044600004E0000068000020CC6C0008CDE90201E7
:10447000FBF7ABFE60601148D0F804C0A068C1171C
:10448000090441EA10410704624600233846FBF75D
:104490009CFE32460023CDE90201FBF796FEA060A8
:1044A000A068002804DDA068A0F58030A06003E0CB
:1044B000A06800F58030A0600020E2E5CC6C000828
:1044C0002DE9FC5F0746884600263F494968087881
:1044D00001AB03220D21FCF7DFFA10B10720BDE884
:1044E000FC9F9DF8040000F01F008DF804009DF86B
:1044F000050000F01F008DF805009DF8060000F093
:104500001F008DF80600002459E057F8240058F8E1
:104510002410A0EB010BBBF1000F01DB594601E0B9
:10452000CBF10001084602F067F94FF08F4100908F
:1045300002F030F8824601A8005D78B3234908688C
:1045400002F072F983465946214802F023F8814669
:1045500004E02049484602F0AFF9814601A8005D19
:10456000401EC0B201A908550028F2D14946504664
:1045700002F010F883464FF07E5102F0A5FA05468E
:1045800000BF25F00040834610488169584602F07C
:104590005FFA13D20120A04006430FE0FFE70B486B
:1045A0000169504602F054F905D308484169504664
:1045B00002F04EFA02D20120A0400643641C032CF4
:1045C000A3DB30468BE7000068000020CC6C0008BD
:1045D00000B04C4554E3853F10B50446204600F03A
:1045E0000FF80346E01C00F00BF843EAC00083B26A
:1045F000A01D00F005F843EA801083B2184610BDF4
:10460000014691F90020002A01DD00201EE091F909
:104610000020002A01DA042018E091F90120002A84
:1046200001DD012012E091F90120002A01DA0520C4
:104630000CE091F90220002A01DD022006E091F948
:104640000220002A01DA062000E00720704700005F
:104650000124FEF753FE00214FF4E130FDF776FF11
:104660004FF4E130FEF7EAF84FF4A060FCF71EFDCE
:10467000FCF778FB472140F2F310FDF7EDFE002137
:1046800041F61F40FDF740FAFDF7AEFAFDF702FBD9
:10469000FBF7F0FFFCF760FD18231BA20021084682
:1046A000FCF7BAFE10231BA218210020FCF7B4FE71
:1046B0000C231CA228210020FCF7AEFE0C231DA217
:1046C00034210020FCF7A8FE0C231CA2342140203A
:1046D000FCF7A2FEFCF7F4FD15E01A491A48006841
:1046E00002F0B6F805D319491748006802F0B0F98E
:1046F00000D2002414B1FCF71BF801E0FCF702F82B
:104700000120FEF71DFEE8E7414C49454E54454B5C
:1047100000000000302E393627204F4C45442054ED
:104720004553540041544F4D20323031342F352FF2
:104730003400000041534349493A0000434F444587
:104740003A0000000000D0C14C0000200000F04101
:1047500070B50446002624F00104184890F824009F
:1047600008B1002070BD1548807A10B94FF0FF30B5
:10477000F8E71248057C807A204010490874084602
:10478000007CA04202D04FF0FF3600E0002614B9B2
:104790000A48007D18B1012000F0BCFF02E00020B3
:1047A00000F0B8FF3CB100F019FB20B103480574DC
:1047B0004FF0FF30D6E73046D4E700006800002015
:1047C00001461148407A30B1012807D0022808D0AC
:1047D00003280CD108E0022008700BE004200870C8
:1047E00008E00820087005E01020087002E04FF093
:1047F000FF30704700BF0448C07C18B108784006FD
:10480000000E08700020F4E76800002001461348FD
:10481000407A30B1012808D002280AD0032810D1EC
:104820000BE04FF4804008800EE041F69C70088059
:104830000AE04FF48050088006E04FF400600880E2
:1048400002E04FF0FF30704700BF0448C07C10B159
:104850000888401008800020F5E70000680000206C
:1048600001460248007C0870002070476800002064
:1048700001460F48007A30B1012807D0022809D03C
:1048800003280FD10AE0FA2008800EE04FF4FA70F6
:1048900008800AE04FF47A70088006E04FF4FA606E
:1048A000088002E00020088000BF00BF00207047A1
:1048B0006800002001460E48007A30B1012807D078
:1048C000022808D003280CD108E00A4808600BE051
:1048D0000948086008E00948086005E008480860E1
:1048E00002E04FF0FF30704700BF0020FBE7000000
:1048F000680000200000034300008342333303427A
:104900003333834101461248C07A082817D2DFE8C2
:1049100000F01704070A0D101318BC20088013E0DC
:104920006220088010E02A2008800DE01420088012
:104930000AE00A20088007E00520088004E000BFA4
:1049400000BF0020088000BF00BF002070470000AB
:10495000680000200146064890F8240010B14FF08E
:10496000FF3070470248C08908800020F9E7000046
:10497000680000201CB580208DF80000604A126895
:10498000917C5F4A526810786B460122FCF7A8F9C7
:1049900010B14FF0FF301CBD6420FEF7D1FC0020A9
:1049A0008DF80000564A1268917C554A526810787A
:1049B0006B460122FCF794F910B14FF0FF30EAE7A3
:1049C0004F4A1268917D4E4A526810786B46062213
:1049D000FCF762F810B14FF0FF30DCE79DF80500FE
:1049E000C007400F9DF8031001F0010140EA4100AB
:1049F0009DF8011001F0010140EA010474B1012C9D
:104A000003D101213E48C17427E0022C03D10021CB
:104A10003B48C17421E04FF0FF30BCE7384A1268D0
:104A2000D178374A526810786B460122FCF734F887
:104A300010B14FF0FF30AEE79DF8000000F00F041A
:104A400014B94FF0FF30A6E7042C03D101212C4804
:104A5000C17402E000212A48C174FF2128488172F4
:104A6000FF2027490872FF2125484172C1724FF685
:104A7000FF71C181FF21017481740121017380F8EC
:104A80002210002180F82310417501751630016055
:104A900041608160163880F8241080F82510C184A8
:104AA0004FF4FA6000F03CFC10B14FF0FF3072E7B9
:104AB000022000F005FB10B14FF0FF306BE72A2019
:104AC00000F0A8FC10B14FF0FF3064E7322000F096
:104AD000E3FC10B14FF0FF305DE70020FFF738FE38
:104AE00010B14FF0FF3056E7002000F02BFB10B163
:104AF0004FF0FF304FE7002000F01CFD00204AE798
:104B0000680000202DE9F04385B005460E4690462A
:104B10009946294890F8250020B14FF0FF3005B0A4
:104B2000BDE8F08316B94FF0FF30F8E7002423E02A
:104B3000281B102801DD102000E0281B87B2321945
:104B40003946204600F05EFD10B14FF0FF30E6E739
:104B500001AA3946204600F001F910B14FF0FF30AC
:104B6000DDE730193A4601A9FBF753FB10B16FF0AE
:104B70000100D4E7E01984B2AC42D9DB4FEA282027
:104B80008DF8000008F0FF008DF801000A4A126855
:104B9000917E094A526810786B460222FCF7A0F811
:104BA00010B14FF0FF30BAE70121034880F825101B
:104BB000A0F826900020B2E76800002038B504462F
:104BC000282C02DD4FF0FF3038BDDCB9002000F0AA
:104BD000EBFB00208DF8000007208DF801002E4A25
:104BE0001268917C2C4A526810786B460222FCF7BE
:104BF00077F810B14FF0FF30E6E700212648017545
:104C00000020E1E7012000F0CFFB20208DF800001C
:104C1000012C06D100208DF80100052000F0FAFBE0
:104C200017E0052C06DC01208DF80100052000F0BE
:104C3000F1FB0EE0142C06DC02208DF801000A20A6
:104C400000F0E8FB05E003208DF80100142000F0DF
:104C5000E1FB9DF80100072101EB8010C0B28DF847
:104C600001000D4A1268917C0B4A526810786B461D
:104C70000222FCF735F810B14FF0FF30A4E708210D
:104C80000548817200210173012101750020FFF7A1
:104C90005FFD002098E7000068000020F8B504469A
:104CA0000F4616462C4890F8240010B94FF0FF30FC
:104CB000F8BD2948807A10B94FF0FF30F8E7264A4E
:104CC0001268917A244A526810786B460222FBF7E8
:104CD000E3FE10B14FF0FF30EAE79DF801009DF8C8
:104CE000001040EA0125A54203DA00203070401E82
:104CF000DEE7194840684088B5EB600F17DD164ABB
:104D00001268517C144A526810786B460122FBF7F6
:104D1000C3FE10B14FF0FF30CAE79DF8000000F06D
:104D2000100020B100F05AF86FF00100C0E7E2B2C5
:104D3000094B1B68D97A084B5B6818783B46FBF730
:104D4000ABFE10B14FF0FF30B2E795FBF4F0401E20
:104D500030700020ACE7000068000020F8B5044681
:104D60000D46164616B94FF0FF30F8BD1A48807A46
:104D700010B94FF0FF30F8E720128DF80000E0B2D4
:104D80008DF801009DF801002844134949684989BC
:104D9000884202DD4FF0FF30E7E70F4A1268117ECC
:104DA0000D4A526810786B460222FBF799FF10B14A
:104DB0004FF0FF30D9E7EAB2074B1B68597D064B2D
:104DC0005B6818783346FBF767FE10B14FF0FF3091
:104DD000CBE70020C9E700006800002008B5704854
:104DE000807A10B94FF0FF3008BD002000906C4A67
:104DF0001268D17B6A4A526810786B460122FBF731
:104E00006FFF10B14FF0FF30EEE7654A126851793D
:104E1000634A526810786B460122FBF761FF10B1BC
:104E20004FF0FF30E0E75E4A126811795C4A526841
:104E300010786B460122FBF753FF10B14FF0FF30A3
:104E4000D2E7574890F82400002853D00C20009057
:104E5000534A12681179524A526810786B460122FF
:104E6000FBF73EFF10B14FF0FF30BDE73220FEF7F9
:104E700067FAC02000904A48807A00F0010020B113
:104E80009DF8000040F020000090454A126811791A
:104E9000434A526810786B460122FBF721FF10B19C
:104EA0004FF0FF30A0E73E48407C10B10220009058
:104EB00001E0002000903A4A1268D17B384A5268DB
:104EC00010786B460122FBF70BFF10B14FF0FF305B
:104ED0008AE700200090324A12685179304A5268BD
:104EE00010786B460122FBF7FBFE002855D04FF0EF
:104EF000FF3079E704200090294A12681179284A86
:104F0000526810786B460122FBF7EAFE10B14FF0B1
:104F1000FF3069E72248807C20B92148807A00F080
:104F2000010010B94020009001E0602000901C4A70
:104F3000126811791A4A526810786B460122FBF701
:104F4000CFFE10B14FF0FF304EE73220FEF7F8F9F8
:104F50001348407C10B10120009001E00020009037
:104F60000F4A1268D17B0E4A526810786B460122B4
:104F7000FBF7B6FE10B14FF0FF3035E7084A126874
:104F80005179074A52681078054B10330122FBF71C
:104F9000A7FE10B14FF0FF3026E7002024E7000005
:104FA000680000202DE9F04F8DB083460F460220A7
:104FB0000C90424890F8240020B1002000F068F9DD
:104FC000012600E0002603A8FFF752FC05A8FFF722
:104FD000F7FB01A8FFF796FC02A8FFF7BBFC3748D8
:104FE00090F80AA004A8FFF73BFC002407E0002289
:104FF00039465846FFF72CF800B902E0641C022C31
:10500000F5DB00BF022C01D1002528E0002407E0D9
:10501000012206A909A8FFF71BF800B902E0641CE9
:10502000022CF5DB00BF022C01D1002517E006A9F8
:105030003846FDF7A9FD00F0FF0809A95846FFF71B
:105040003FFA00F0FF090025B9F1000F01D145F04A
:105050000105B8F1000F01D145F0020500BFFF20A6
:1050600016490872FF2115484172C1724FF6FF714F
:10507000C181FF218172017401210173BDF80C000F
:1050800000F04EF99DF8140000F01AF8BDF8040085
:1050900000F0C0F9BDF8080000F0FEF9504600F03D
:1050A00049FA9DF81000FFF753FB16B1012000F0FC
:1050B000EFF828460DB0BDE8F08F00006800002032
:1050C00038B504461E48807A10B94FF0FF3038BD1D
:1050D000022C06D0042C07D0082C08D0102C0CD1A0
:1050E00008E0002000900BE00820009008E010206D
:1050F000009005E01820009002E04FF0FF30E6E756
:1051000000BF0F48407A9DF80010B0EBE10F01D1CD
:105110000020DCE70A4A1268D179094A52681078FF
:105120006B460122FBF7DCFD10B14FF0FF30CEE7FC
:105130009DF80000C110024841720020C7E700003E
:105140006800002038B504465048807CA04201D158
:10515000002038BD002C46D04C4A126811794B4AC9
:10516000526810786B460122FBF796FC10B14FF0A5
:10517000FF30EEE79DF8000020F020000090434A49
:1051800012681179414A526810786B460122FBF788
:10519000A7FD10B14FF0FF30DBE70320FEF7D0F89A
:1051A00002200090394890F8220020B19DF80000BC
:1051B00040F080000090354890F8230020B19DF821
:1051C000000040F030000090304A1268117D2F4AF4
:1051D000526810786B460122FBF782FD002851D0FF
:1051E0004FF0FF30B5E7294A12681179274A526813
:1051F00010786B460122FBF74FFC10B14FF0FF30E7
:10520000A7E72248807A00F0010028B19DF800004D
:1052100040F02000009004E09DF8000020F0200005
:1052200000901A4A12681179184A526810786B4631
:105230000122FBF755FD10B14FF0FF3089E7032045
:10524000FEF77EF8114890F8220010B180200090FF
:1052500001E0002000900D4890F8230020B19DF857
:10526000000040F030000090084A1268117D074AA3
:10527000526810786B460122FBF732FD10B14FF0F7
:10528000FF3066E701488474002062E76800002070
:1052900038B50446214890F82400A04201D10020EE
:1052A00038BD24B31D4890F8250010B94FF0FF30E9
:1052B000F6E7002000F02EFA0020FFF743FF174921
:1052C000C88C00F0E9F8002000901449496808787B
:1052D0006B4601222321FBF703FD01210F4880F8D3
:1052E0002410012000F016FAFFF778FD13E00020EB
:1052F00000F010FA0948007C0090084949680878D5
:105300006B4601222321FBF7EBFC0021034880F8C8
:105310002410FFF763FD0020C2E7000068000020B2
:1053200038B504461F48807A10B94FF0FF3038BDB9
:10533000FA2C09D0B4F5FA7F09D0B4F57A7F09D0F8
:10534000B4F5FA6F0CD108E0002000900BE00820C3
:10535000009008E01020009005E01820009002E086
:105360004FF0FF30E3E700BF0E48007A9DF80010D1
:10537000B0EBE10F01D10020D9E70A4A1268917918
:10538000084A526810786B460122FBF7A9FC10B15D
:105390004FF0FF30CBE79DF80000C01001490872C4
:1053A0000020C4E76800002038B50446184890F88B
:1053B0002300A04201D1002038BD14B1302000905C
:1053C00001E0002000901248807C20B19DF8000090
:1053D00040F0020000900E4890F8220020B19DF8A5
:1053E000000040F080000090094A1268117D084AD0
:1053F000526810786B460122FBF772FC10B14FF037
:10540000FF30D9E7024880F823400020D4E70000AD
:105410006800002038B504461E48807A10B94FF065
:10542000FF3038BDBC2C02DB0120009015E0622C5F
:1054300002DB0220009010E02A2C02DB0320009007
:105440000BE0142C02DB0420009006E00A2C02DBA7
:105450000520009001E0062000900E48C07A9DF8DB
:105460000010884201D10020DBE70A4A12689178D7
:10547000084A526810786B460122FBF731FC10B1E4
:105480004FF0FF30CDE79DF800100248C1720020B8
:10549000C7E700006800002038B504462448807A39
:1054A00010B94FF0FF3038BD214890F8240010B1FA
:1054B0004FF0FF30F7E71E48007D50B134B1282C83
:1054C00004DCE0B2FFF77AFB0020ECE70020FFF7F6
:1054D00075FB042C01DA042404E0B4F57A7F01DDC5
:1054E0004FF47A744FF47A7090FBF4F0401EC0B21F
:1054F00000900F4A126851780D4A526810786B4636
:105500000122FBF7EDFB10B14FF0FF30CBE79DF828
:105510000000401C4FF47A7191FBF0F081B2044816
:10552000C1810146C9894810FFF774FF0020BAE71E
:105530006800002038B5044604F0700010B1012066
:10554000009005E014B10020009001E040200090A0
:105550002B4A1268917C2A4A526810786B460122C5
:10556000FBF7BEFB20B1002125488172481E38BDE3
:105570009DF8000020F040012148017300200090B8
:1055800004F0400020B99DF8000040F004000090B5
:1055900004F0200020B99DF8000040F002000090C7
:1055A00004F0100020B99DF8000040F001000090C8
:1055B00004F0080020B99DF8000040F03800009089
:1055C0000F4A1268D17C0E4A526810786B4601224D
:1055D000FBF786FB20B1002109488172481EC6E70F
:1055E00024B1082C02D00020FFF7DEFE04488472AC
:1055F000002101753220FDF7A3FE0020B7E700006F
:1056000068000020F8B504460D46164616B94FF05E
:10561000FF30F8BD1A48807A10B94FF0FF30F8E734
:1056200020128DF80000E0B28DF801009DF8010015
:105630002844134949684989884202DD4FF0FF3008
:10564000E7E70F4A1268117E0D4A526810786B46E0
:105650000222FBF745FB10B14FF0FF30D9E7EAB269
:10566000074B1B68597D064B5B6818783346FBF780
:1056700037FB10B14FF0FF30CBE70020C9E7000047
:105680006800002070B588B002A905A8FFF78AFC61
:105690000446072C3CD101A8FFF70CF9059801F04E
:1056A000ABF80646019901F007F9054601F068F8E4
:1056B0000590069801F0A0F80646019901F0FCF863
:1056C000054601F05DF80690079801F095F806464A
:1056D000019901F0F1F8054601F052F8079005A88C
:1056E000FEF7BAF96846FFF791F8BDF80010029886
:1056F00048430290BDF80010039848430390BDF85A
:10570000001004984843049002A8FEF7D5F800BFA3
:1057100008B070BD38B50446214890F82400C0B1E7
:1057200014B10220009001E0002000901C4A126891
:10573000D17B1B4A526810786B460122FBF7D0FAE6
:1057400010B14FF0FF3038BD9DF80010144841747F
:1057500023E01348807A10B94FF0FF30F3E724B10B
:105760000F48407C08B10020EDE714B10120009003
:1057700001E0002000900A4A1268D17B084A526872
:1057800010786B460122FBF7ABFA10B14FF0FF30F7
:10579000D9E79DF80010024841740020D3E70000CB
:1057A000680000202DE9F05F4448006800F058FED2
:1057B00006460022424B00F00DFA044600F028F99C
:1057C0004049086040480078012802D196203F49AE
:1057D00008803F480078012803D16FF095003B49CD
:1057E00008803C480078012802D100203749088011
:1057F0004FF4AF70354908803749B1F90010374A86
:10580000B2F900201144084600F0F6FF3449086060
:105810003448006800F024FE0646334A334B00F05B
:1058200045FB044600F0F4F82E4908602C48006857
:1058300000F016FE80462C4A2D4B00F037FB044644
:105840000D462848006800F00BFE064622462B460F
:1058500000F010F9824600F0DBF8224908600846A3
:1058600001682448006800F027FE224908601748B4
:10587000B0F9000000F0C0FF04461E480168204651
:1058800001F017F91B4908600E48016819480068C3
:1058900001F012F80446094801681248006801F056
:1058A0000BF80546214600F007FE1349086008463C
:1058B000006800F065FFBDE8F09F0000D000002008
:1058C00000006940D4000020AA000020C800002089
:1058D000AB000020AC000020D8000020DA0000203F
:1058E000C0000020C40000209A9999999999E93F35
:1058F0009999C93FCC000020BC0000202DE9F0415F
:1059000006460F4600F0DCFB041E0D4618BF0120C2
:10591000284320F00040C0F17F6000F1E040C00F5C
:105920000ED0301C18BF0120384320F00040C0F1D9
:105930007F6000F1E040C00F04BF0120FAF71DFDB9
:1059400020462946BDE8F0812DE9F04F89B0924606
:10595000DFF89CB02748059027480078012802D13D
:10596000DFF898B008E026480078012802D1DFF877
:1059700094B001E04FF0000B04210520FBF71EF866
:10598000089004210846FBF719F80790089800F0E2
:1059900079FACDE90201079800F074FA80461A4AB4
:1059A0001A4B00F083FACDE90001DDE9022300F093
:1059B0006DFC064600224FF0804300F077FA044663
:1059C00000F026F883460021504601F07DF804904F
:1059D000DDE9041000F070FF06905946069800F0CB
:1059E0006BFD0690069800F0CBFE09B0BDE8F08F85
:1059F000000030422506813DA800002000007AC446
:105A0000A900002000007A449A9999999999F13F48
:105A100021F00042A2F16052B2F5801F01F0004374
:105A200028BFD2F17F6C0BD95FEA001C43EAC202A7
:105A300042EB507018BF704728BF20F0010070473C
:105A4000B2F5801FBCBF184670474FEA410C1CF5E9
:105A5000001F02D2084600F0F6BF70B500F0D0FA81
:105A600000000089FFF7F6BF4FF00040A0F580006E
:105A70007047000010B591EA030F48BF83F0004360
:105A800000F10C84841A71EB030C05D2121943EB5C
:105A90000C03001B61EB0C01DFF824E14FEA115409
:105AA000A4EB135C1EEA430F18BF9EEA445F73D059
:105AB00023EA0E03DCF1200E21EA045143F48013A3
:105AC00032D322FA0CFE10EB0E0023FA0CFE41EB4F
:105AD0000E01CCF1200E03FA0EFE10EB0E0051F178
